{
  "contractName": "CloudSLA",
  "abi": [
    {
      "inputs": [
        {
          "internalType": "address",
          "name": "_oracle",
          "type": "address"
        },
        {
          "internalType": "address",
          "name": "_cloud",
          "type": "address"
        },
        {
          "internalType": "address",
          "name": "_user",
          "type": "address"
        },
        {
          "internalType": "uint256",
          "name": "_price",
          "type": "uint256"
        },
        {
          "internalType": "uint256",
          "name": "_validityDuration",
          "type": "uint256"
        },
        {
          "internalType": "uint256",
          "name": "lostFileCredits",
          "type": "uint256"
        },
        {
          "internalType": "uint256",
          "name": "undeletedFileCredits",
          "type": "uint256"
        }
      ],
      "stateMutability": "nonpayable",
      "type": "constructor"
    },
    {
      "anonymous": false,
      "inputs": [
        {
          "indexed": true,
          "internalType": "address",
          "name": "_from",
          "type": "address"
        },
        {
          "indexed": false,
          "internalType": "string",
          "name": "filepath",
          "type": "string"
        }
      ],
      "name": "ChallengeCorrect",
      "type": "event"
    },
    {
      "anonymous": false,
      "inputs": [
        {
          "indexed": true,
          "internalType": "address",
          "name": "_from",
          "type": "address"
        },
        {
          "indexed": false,
          "internalType": "bytes32",
          "name": "response",
          "type": "bytes32"
        }
      ],
      "name": "ChallengeWrong",
      "type": "event"
    },
    {
      "anonymous": false,
      "inputs": [
        {
          "indexed": true,
          "internalType": "address",
          "name": "_user",
          "type": "address"
        },
        {
          "indexed": false,
          "internalType": "uint256",
          "name": "value",
          "type": "uint256"
        }
      ],
      "name": "CompensatedUser",
      "type": "event"
    },
    {
      "anonymous": false,
      "inputs": [
        {
          "indexed": true,
          "internalType": "address",
          "name": "_from",
          "type": "address"
        },
        {
          "indexed": false,
          "internalType": "string",
          "name": "filepath",
          "type": "string"
        }
      ],
      "name": "DeleteRequested",
      "type": "event"
    },
    {
      "anonymous": false,
      "inputs": [
        {
          "indexed": true,
          "internalType": "address",
          "name": "_from",
          "type": "address"
        },
        {
          "indexed": false,
          "internalType": "string",
          "name": "filepath",
          "type": "string"
        }
      ],
      "name": "Deleted",
      "type": "event"
    },
    {
      "anonymous": false,
      "inputs": [
        {
          "indexed": true,
          "internalType": "address",
          "name": "_from",
          "type": "address"
        },
        {
          "indexed": false,
          "internalType": "string",
          "name": "filepath",
          "type": "string"
        },
        {
          "indexed": false,
          "internalType": "string",
          "name": "msg",
          "type": "string"
        },
        {
          "indexed": false,
          "internalType": "uint256",
          "name": "credits",
          "type": "uint256"
        }
      ],
      "name": "FileChecked",
      "type": "event"
    },
    {
      "anonymous": false,
      "inputs": [
        {
          "indexed": true,
          "internalType": "address",
          "name": "_from",
          "type": "address"
        },
        {
          "indexed": false,
          "internalType": "uint256",
          "name": "endTime",
          "type": "uint256"
        }
      ],
      "name": "Paid",
      "type": "event"
    },
    {
      "anonymous": false,
      "inputs": [
        {
          "indexed": true,
          "internalType": "address",
          "name": "_cloud",
          "type": "address"
        },
        {
          "indexed": false,
          "internalType": "uint256",
          "name": "value",
          "type": "uint256"
        }
      ],
      "name": "PaidCloudProvider",
      "type": "event"
    },
    {
      "anonymous": false,
      "inputs": [
        {
          "indexed": true,
          "internalType": "address",
          "name": "_from",
          "type": "address"
        },
        {
          "indexed": false,
          "internalType": "string",
          "name": "filepath",
          "type": "string"
        },
        {
          "indexed": false,
          "internalType": "string",
          "name": "url",
          "type": "string"
        }
      ],
      "name": "ReadRequestAcked",
      "type": "event"
    },
    {
      "anonymous": false,
      "inputs": [
        {
          "indexed": true,
          "internalType": "address",
          "name": "_from",
          "type": "address"
        },
        {
          "indexed": false,
          "internalType": "string",
          "name": "filepath",
          "type": "string"
        },
        {
          "indexed": false,
          "internalType": "bool",
          "name": "lostFile",
          "type": "bool"
        },
        {
          "indexed": false,
          "internalType": "uint256",
          "name": "credits",
          "type": "uint256"
        }
      ],
      "name": "ReadRequestDenied",
      "type": "event"
    },
    {
      "anonymous": false,
      "inputs": [
        {
          "indexed": true,
          "internalType": "address",
          "name": "_from",
          "type": "address"
        },
        {
          "indexed": false,
          "internalType": "string",
          "name": "filepath",
          "type": "string"
        }
      ],
      "name": "ReadRequested",
      "type": "event"
    },
    {
      "anonymous": false,
      "inputs": [
        {
          "indexed": true,
          "internalType": "address",
          "name": "_from",
          "type": "address"
        },
        {
          "indexed": false,
          "internalType": "string",
          "name": "filepath",
          "type": "string"
        }
      ],
      "name": "UploadRequestAcked",
      "type": "event"
    },
    {
      "anonymous": false,
      "inputs": [
        {
          "indexed": true,
          "internalType": "address",
          "name": "_from",
          "type": "address"
        },
        {
          "indexed": false,
          "internalType": "string",
          "name": "filepath",
          "type": "string"
        },
        {
          "indexed": false,
          "internalType": "bytes32",
          "name": "challenge",
          "type": "bytes32"
        }
      ],
      "name": "UploadRequested",
      "type": "event"
    },
    {
      "anonymous": false,
      "inputs": [
        {
          "indexed": true,
          "internalType": "address",
          "name": "_from",
          "type": "address"
        },
        {
          "indexed": false,
          "internalType": "string",
          "name": "filepath",
          "type": "string"
        },
        {
          "indexed": false,
          "internalType": "bytes32",
          "name": "digest",
          "type": "bytes32"
        }
      ],
      "name": "UploadTransferAcked",
      "type": "event"
    },
    {
      "inputs": [
        {
          "internalType": "bytes32",
          "name": "i",
          "type": "bytes32"
        }
      ],
      "name": "FileInBC",
      "outputs": [
        {
          "internalType": "bool",
          "name": "res",
          "type": "bool"
        }
      ],
      "stateMutability": "view",
      "type": "function"
    },
    {
      "inputs": [
        {
          "internalType": "bytes32",
          "name": "i",
          "type": "bytes32"
        }
      ],
      "name": "UrlPublished",
      "outputs": [
        {
          "internalType": "bool",
          "name": "res",
          "type": "bool"
        }
      ],
      "stateMutability": "view",
      "type": "function"
    },
    {
      "inputs": [
        {
          "internalType": "bytes32",
          "name": "i",
          "type": "bytes32"
        },
        {
          "internalType": "bool",
          "name": "onCloud",
          "type": "bool"
        }
      ],
      "name": "FileOnCloud",
      "outputs": [
        {
          "internalType": "bool",
          "name": "res",
          "type": "bool"
        }
      ],
      "stateMutability": "view",
      "type": "function"
    },
    {
      "inputs": [
        {
          "internalType": "bytes32",
          "name": "i",
          "type": "bytes32"
        }
      ],
      "name": "NotBeingChecked",
      "outputs": [
        {
          "internalType": "bool",
          "name": "res",
          "type": "bool"
        }
      ],
      "stateMutability": "view",
      "type": "function"
    },
    {
      "inputs": [
        {
          "internalType": "bytes32",
          "name": "i",
          "type": "bytes32"
        },
        {
          "internalType": "enum CloudSLA.State",
          "name": "prevState",
          "type": "uint8"
        }
      ],
      "name": "FileState",
      "outputs": [
        {
          "internalType": "bool",
          "name": "res",
          "type": "bool"
        }
      ],
      "stateMutability": "view",
      "type": "function"
    },
    {
      "inputs": [],
      "name": "Deposit",
      "outputs": [],
      "stateMutability": "payable",
      "type": "function"
    },
    {
      "inputs": [],
      "name": "EndSla",
      "outputs": [],
      "stateMutability": "nonpayable",
      "type": "function"
    },
    {
      "inputs": [
        {
          "internalType": "string",
          "name": "filepath",
          "type": "string"
        },
        {
          "internalType": "bytes32",
          "name": "challenge",
          "type": "bytes32"
        }
      ],
      "name": "UploadRequest",
      "outputs": [],
      "stateMutability": "nonpayable",
      "type": "function"
    },
    {
      "inputs": [
        {
          "internalType": "string",
          "name": "filepath",
          "type": "string"
        }
      ],
      "name": "UploadRequestAck",
      "outputs": [],
      "stateMutability": "nonpayable",
      "type": "function"
    },
    {
      "inputs": [
        {
          "internalType": "string",
          "name": "filepath",
          "type": "string"
        },
        {
          "internalType": "bytes32",
          "name": "digest",
          "type": "bytes32"
        }
      ],
      "name": "UploadTransferAck",
      "outputs": [],
      "stateMutability": "nonpayable",
      "type": "function"
    },
    {
      "inputs": [
        {
          "internalType": "string",
          "name": "filepath",
          "type": "string"
        }
      ],
      "name": "DeleteRequest",
      "outputs": [],
      "stateMutability": "nonpayable",
      "type": "function"
    },
    {
      "inputs": [
        {
          "internalType": "string",
          "name": "filepath",
          "type": "string"
        }
      ],
      "name": "Delete",
      "outputs": [],
      "stateMutability": "nonpayable",
      "type": "function"
    },
    {
      "inputs": [
        {
          "internalType": "string",
          "name": "filepath",
          "type": "string"
        }
      ],
      "name": "ReadRequest",
      "outputs": [],
      "stateMutability": "nonpayable",
      "type": "function"
    },
    {
      "inputs": [
        {
          "internalType": "string",
          "name": "filepath",
          "type": "string"
        },
        {
          "internalType": "string",
          "name": "url",
          "type": "string"
        }
      ],
      "name": "ReadRequestAck",
      "outputs": [],
      "stateMutability": "nonpayable",
      "type": "function"
    },
    {
      "inputs": [
        {
          "internalType": "string",
          "name": "filepath",
          "type": "string"
        }
      ],
      "name": "ReadRequestDeny",
      "outputs": [],
      "stateMutability": "nonpayable",
      "type": "function"
    },
    {
      "inputs": [
        {
          "internalType": "string",
          "name": "filepath",
          "type": "string"
        }
      ],
      "name": "FileHashRequest",
      "outputs": [],
      "stateMutability": "nonpayable",
      "type": "function"
    },
    {
      "inputs": [
        {
          "internalType": "string",
          "name": "filepath",
          "type": "string"
        }
      ],
      "name": "FileCheck",
      "outputs": [],
      "stateMutability": "nonpayable",
      "type": "function"
    },
    {
      "inputs": [
        {
          "internalType": "string",
          "name": "filepath",
          "type": "string"
        }
      ],
      "name": "GetFile",
      "outputs": [
        {
          "internalType": "bytes32",
          "name": "",
          "type": "bytes32"
        },
        {
          "internalType": "enum CloudSLA.State[]",
          "name": "",
          "type": "uint8[]"
        },
        {
          "internalType": "bool",
          "name": "",
          "type": "bool"
        },
        {
          "internalType": "bytes32[]",
          "name": "",
          "type": "bytes32[]"
        },
        {
          "internalType": "string",
          "name": "",
          "type": "string"
        }
      ],
      "stateMutability": "view",
      "type": "function"
    },
    {
      "inputs": [],
      "name": "GetSLAInfo",
      "outputs": [
        {
          "internalType": "bool",
          "name": "",
          "type": "bool"
        },
        {
          "internalType": "uint256",
          "name": "",
          "type": "uint256"
        },
        {
          "internalType": "uint256",
          "name": "",
          "type": "uint256"
        },
        {
          "internalType": "uint256",
          "name": "",
          "type": "uint256"
        }
      ],
      "stateMutability": "view",
      "type": "function"
    }
  ],
  "bytecode": "0x60806040523480156200001157600080fd5b50604051620041233803806200412383398181016040528101906200003791906200023d565b866000806101000a81548173ffffffffffffffffffffffffffffffffffffffff021916908373ffffffffffffffffffffffffffffffffffffffff16021790555085600260006101000a81548173ffffffffffffffffffffffffffffffffffffffff021916908373ffffffffffffffffffffffffffffffffffffffff16021790555084600160006101000a81548173ffffffffffffffffffffffffffffffffffffffff021916908373ffffffffffffffffffffffffffffffffffffffff16021790555083600481905550826006819055508160056000806001811115620001225762000121620002f0565b5b6001811115620001375762000136620002f0565b5b8152602001908152602001600020819055508060056000600180811115620001645762000163620002f0565b5b6001811115620001795762000178620002f0565b5b815260200190815260200160002081905550505050505050506200031f565b600080fd5b600073ffffffffffffffffffffffffffffffffffffffff82169050919050565b6000620001ca826200019d565b9050919050565b620001dc81620001bd565b8114620001e857600080fd5b50565b600081519050620001fc81620001d1565b92915050565b6000819050919050565b620002178162000202565b81146200022357600080fd5b50565b60008151905062000237816200020c565b92915050565b600080600080600080600060e0888a0312156200025f576200025e62000198565b5b60006200026f8a828b01620001eb565b9750506020620002828a828b01620001eb565b9650506040620002958a828b01620001eb565b9550506060620002a88a828b0162000226565b9450506080620002bb8a828b0162000226565b93505060a0620002ce8a828b0162000226565b92505060c0620002e18a828b0162000226565b91505092959891949750929550565b7f4e487b7100000000000000000000000000000000000000000000000000000000600052602160045260246000fd5b613df4806200032f6000396000f3fe608060405260043610610131576000357c01000000000000000000000000000000000000000000000000000000009004806373f9522e116100bd578063cb95a5bb11610081578063cb95a5bb146103bb578063d4e2ba0c146103e4578063de6d15ce14610421578063ecce9a241461045e578063ed21248c1461048757610131565b806373f9522e146102e75780637dc5f9a8146103245780638991bdc91461033b57806399bdcf2114610364578063c632e5361461038d57610131565b806345af1ea31161010457806345af1ea3146101f25780634f10916e1461022f57806363e3ca97146102585780636815d535146102815780636d6cb605146102be57610131565b80630bc12553146101365780630c5569be1461015f57806315f18596146101885780633f7f626e146101b1575b600080fd5b34801561014257600080fd5b5061015d60048036038101906101589190612f09565b610491565b005b34801561016b57600080fd5b5061018660048036038101906101819190612f09565b6106a3565b005b34801561019457600080fd5b506101af60048036038101906101aa9190612f09565b610c10565b005b3480156101bd57600080fd5b506101d860048036038101906101d39190613097565b610e33565b6040516101e9959493929190613380565b60405180910390f35b3480156101fe57600080fd5b5061021960048036038101906102149190613440565b611051565b6040516102269190613480565b60405180910390f35b34801561023b57600080fd5b5061025660048036038101906102519190612f09565b6110f7565b005b34801561026457600080fd5b5061027f600480360381019061027a919061349b565b611338565b005b34801561028d57600080fd5b506102a860048036038101906102a391906134fb565b611594565b6040516102b59190613480565b60405180910390f35b3480156102ca57600080fd5b506102e560048036038101906102e09190612f09565b6115ca565b005b3480156102f357600080fd5b5061030e600480360381019061030991906134fb565b6117ed565b60405161031b9190613480565b60405180910390f35b34801561033057600080fd5b506103396118b5565b005b34801561034757600080fd5b50610362600480360381019061035d919061349b565b611a32565b005b34801561037057600080fd5b5061038b60048036038101906103869190613528565b611c90565b005b34801561039957600080fd5b506103a2611ece565b6040516103b294939291906135c2565b60405180910390f35b3480156103c757600080fd5b506103e260048036038101906103dd9190612f09565b611f0d565b005b3480156103f057600080fd5b5061040b6004803603810190610406919061362c565b612130565b6040516104189190613480565b60405180910390f35b34801561042d57600080fd5b50610448600480360381019061044391906134fb565b61220e565b6040516104559190613480565b60405180910390f35b34801561046a57600080fd5b5061048560048036038101906104809190612f09565b612273565b005b61048f612587565b005b600260009054906101000a900473ffffffffffffffffffffffffffffffffffffffff1673ffffffffffffffffffffffffffffffffffffffff163373ffffffffffffffffffffffffffffffffffffffff1614610521576040517f08c379a0000000000000000000000000000000000000000000000000000000008152600401610518906136b8565b60405180910390fd5b600760010160000154421015801561054157506007600101600101544211155b610580576040517f08c379a000000000000000000000000000000000000000000000000000000000815260040161057790613724565b60405180910390fd5b60006105cf83838080601f016020809104026020016040519081016040528093929190818152602001838380828437600081840152601f19601f82011690508083019250505050505050612716565b90506105dc816001612130565b6105e557600080fd5b60036000828152602001908152602001600020600201600290806001815401808255809150506001900390600052602060002090602091828204019190069091909190916101000a81548160ff0219169083600a81111561064957610648613125565b5b02179055503373ffffffffffffffffffffffffffffffffffffffff167f0cdd49fa6677e6748e3e1adfa06f5190776179323cc7e22c98124b1a389b16398484604051610696929190613771565b60405180910390a2505050565b600160009054906101000a900473ffffffffffffffffffffffffffffffffffffffff1673ffffffffffffffffffffffffffffffffffffffff163373ffffffffffffffffffffffffffffffffffffffff1614610733576040517f08c379a000000000000000000000000000000000000000000000000000000000815260040161072a906137e1565b60405180910390fd5b600760010160000154421015801561075357506007600101600101544211155b610792576040517f08c379a000000000000000000000000000000000000000000000000000000000815260040161078990613724565b60405180910390fd5b60006107e183838080601f016020809104026020016040519081016040528093929190818152602001838380828437600081840152601f19601f82011690508083019250505050505050612716565b90506107ec81611594565b80156107ff57506107fe81600a612130565b5b61080857600080fd5b60008060009054906101000a900473ffffffffffffffffffffffffffffffffffffffff1673ffffffffffffffffffffffffffffffffffffffff166397307a8b600360008581526020019081526020016000206004016040518263ffffffff167c010000000000000000000000000000000000000000000000000000000002815260040161089591906138f7565b60206040518083038186803b1580156108ad57600080fd5b505afa1580156108c1573d6000803e3d6000fd5b505050506040513d601f19601f820116820180604052508101906108e5919061392e565b6003600084815260200190815260200160002060030160016003600086815260200190815260200160002060030180549050610921919061398a565b81548110610932576109316139be565b5b906000526020600020015414905060006040518060400160405280601281526020017f4e6f20534c412076696f6c6174696f6e732e000000000000000000000000000081525090506003600084815260200190815260200160002060010160009054906101000a900460ff161580156109a85750815b15610a1e57604051806060016040528060328152602001613d8d603291399050600560006001808111156109df576109de613125565b5b60018111156109f1576109f0613125565b5b815260200190815260200160002054600760030154610a1091906139ed565b600760030181905550610adc565b6003600084815260200190815260200160002060010160009054906101000a900460ff168015610a4c575081155b15610adb576040518060400160405280601881526020017f46696c6520686173206265656e20636f727275707465642e0000000000000000815250905060056000806001811115610aa057610a9f613125565b5b6001811115610ab257610ab1613125565b5b815260200190815260200160002054600760030154610ad191906139ed565b6007600301819055505b5b600360008481526020019081526020016000206002016003600085815260200190815260200160002060020160026003600087815260200190815260200160002060020180549050610b2e919061398a565b81548110610b3f57610b3e6139be565b5b90600052602060002090602091828204019190069054906101000a900460ff1690806001815401808255809150506001900390600052602060002090602091828204019190069091909190916101000a81548160ff0219169083600a811115610bab57610baa613125565b5b02179055503373ffffffffffffffffffffffffffffffffffffffff167fdbb420a00576fdff9e639fd43b67c2e15c5e59221c70859bd7b04a0ce360abe0868684600760030154604051610c019493929190613a43565b60405180910390a25050505050565b600260009054906101000a900473ffffffffffffffffffffffffffffffffffffffff1673ffffffffffffffffffffffffffffffffffffffff163373ffffffffffffffffffffffffffffffffffffffff1614610ca0576040517f08c379a0000000000000000000000000000000000000000000000000000000008152600401610c97906136b8565b60405180910390fd5b6007600101600001544210158015610cc057506007600101600101544211155b610cff576040517f08c379a0000000000000000000000000000000000000000000000000000000008152600401610cf690613724565b60405180910390fd5b6000610d4e83838080601f016020809104026020016040519081016040528093929190818152602001838380828437600081840152601f19601f82011690508083019250505050505050612716565b9050610d5b816007612130565b610d6457600080fd5b60036000828152602001908152602001600020600201600990806001815401808255809150506001900390600052602060002090602091828204019190069091909190916101000a81548160ff0219169083600a811115610dc857610dc7613125565b5b02179055503373ffffffffffffffffffffffffffffffffffffffff167fcb3c22ee2ed4ae842bad64667a31e7de4a9704bbce689926175cbd0e435307f88484610e108561278e565b600760030154604051610e269493929190613a8a565b60405180910390a2505050565b6000606060006060806000610e4787612716565b9050610e5281611594565b610e5b57600080fd5b6003600082815260200190815260200160002060000154600360008381526020019081526020016000206002016003600084815260200190815260200160002060010160009054906101000a900460ff16600360008581526020019081526020016000206003016003600086815260200190815260200160002060040183805480602002602001604051908101604052809291908181526020018280548015610f5857602002820191906000526020600020906000905b82829054906101000a900460ff16600a811115610f3257610f31613125565b5b81526020019060010190602082600001049283019260010382029150808411610f125790505b5050505050935081805480602002602001604051908101604052809291908181526020018280548015610faa57602002820191906000526020600020905b815481526020019060010190808311610f96575b50505050509150808054610fbd90613830565b80601f0160208091040260200160405190810160405280929190818152602001828054610fe990613830565b80156110365780601f1061100b57610100808354040283529160200191611036565b820191906000526020600020905b81548152906001019060200180831161101957829003601f168201915b50505050509050955095509550955095505091939590929450565b600080600060010260036000868152602001908152602001600020600001541415905082156110bf576000600102841415801561108b5750805b80156110b757506003600085815260200190815260200160002060010160009054906101000a900460ff165b9150506110f1565b8015806110ed57506003600085815260200190815260200160002060010160009054906101000a900460ff16155b9150505b92915050565b600260009054906101000a900473ffffffffffffffffffffffffffffffffffffffff1673ffffffffffffffffffffffffffffffffffffffff163373ffffffffffffffffffffffffffffffffffffffff1614611187576040517f08c379a000000000000000000000000000000000000000000000000000000000815260040161117e906136b8565b60405180910390fd5b60076001016000015442101580156111a757506007600101600101544211155b6111e6576040517f08c379a00000000000000000000000000000000000000000000000000000000081526004016111dd90613724565b60405180910390fd5b600061123583838080601f016020809104026020016040519081016040528093929190818152602001838380828437600081840152601f19601f82011690508083019250505050505050612716565b9050611242816005612130565b61124b57600080fd5b60036000828152602001908152602001600020600201600690806001815401808255809150506001900390600052602060002090602091828204019190069091909190916101000a81548160ff0219169083600a8111156112af576112ae613125565b5b021790555060006003600083815260200190815260200160002060010160006101000a81548160ff0219169083151502179055503373ffffffffffffffffffffffffffffffffffffffff167fcf23c84b97507296743c82bc5af85b760c38e0602755fb48fe72f009b0f30f48848460405161132b929190613771565b60405180910390a2505050565b600160009054906101000a900473ffffffffffffffffffffffffffffffffffffffff1673ffffffffffffffffffffffffffffffffffffffff163373ffffffffffffffffffffffffffffffffffffffff16146113c8576040517f08c379a00000000000000000000000000000000000000000000000000000000081526004016113bf906137e1565b60405180910390fd5b60076001016000015442101580156113e857506007600101600101544211155b611427576040517f08c379a000000000000000000000000000000000000000000000000000000000815260040161141e90613724565b60405180910390fd5b600061147684848080601f016020809104026020016040519081016040528093929190818152602001838380828437600081840152601f19601f82011690508083019250505050505050612716565b9050611483816000611051565b80156114945750611493816117ed565b5b61149d57600080fd5b80600360008381526020019081526020016000206000018190555060036000828152602001908152602001600020600201600190806001815401808255809150506001900390600052602060002090602091828204019190069091909190916101000a81548160ff0219169083600a81111561151c5761151b613125565b5b02179055508160036000838152602001908152602001600020600501819055503373ffffffffffffffffffffffffffffffffffffffff167f6ab2c7ff854b93ac12f4eb380ccf37503d9c7e96316d8eed6a958a90c681466585858560405161158693929190613aca565b60405180910390a250505050565b60008060010282141580156115c357506000600102600360008481526020019081526020016000206000015414155b9050919050565b600160009054906101000a900473ffffffffffffffffffffffffffffffffffffffff1673ffffffffffffffffffffffffffffffffffffffff163373ffffffffffffffffffffffffffffffffffffffff161461165a576040517f08c379a0000000000000000000000000000000000000000000000000000000008152600401611651906137e1565b60405180910390fd5b600760010160000154421015801561167a57506007600101600101544211155b6116b9576040517f08c379a00000000000000000000000000000000000000000000000000000000081526004016116b090613724565b60405180910390fd5b600061170883838080601f016020809104026020016040519081016040528093929190818152602001838380828437600081840152601f19601f82011690508083019250505050505050612716565b9050611715816001611051565b80156117265750611725816117ed565b5b61172f57600080fd5b60036000828152602001908152602001600020600201600590806001815401808255809150506001900390600052602060002090602091828204019190069091909190916101000a81548160ff0219169083600a81111561179357611792613125565b5b02179055503373ffffffffffffffffffffffffffffffffffffffff167fa361c37b9b9279fb76c5b2f6766e0c6329c08bcca7bd57140b98e24f8f9dc36984846040516117e0929190613771565b60405180910390a2505050565b60008060006001026003600085815260200190815260200160002060000154141590508015806118ad5750600a8081111561182b5761182a613125565b5b6003600085815260200190815260200160002060020160016003600087815260200190815260200160002060020180549050611867919061398a565b81548110611878576118776139be565b5b90600052602060002090602091828204019190069054906101000a900460ff16600a8111156118aa576118a9613125565b5b14155b915050919050565b600160009054906101000a900473ffffffffffffffffffffffffffffffffffffffff1673ffffffffffffffffffffffffffffffffffffffff163373ffffffffffffffffffffffffffffffffffffffff16148061195e5750600260009054906101000a900473ffffffffffffffffffffffffffffffffffffffff1673ffffffffffffffffffffffffffffffffffffffff163373ffffffffffffffffffffffffffffffffffffffff16145b61199d576040517f08c379a000000000000000000000000000000000000000000000000000000000815260040161199490613b48565b60405180910390fd5b6007600101600101544210156119e8576040517f08c379a00000000000000000000000000000000000000000000000000000000081526004016119df90613bb4565b60405180910390fd5b6119f0612800565b6119f86128fd565b6007600080820160006101000a81549060ff0219169055600182016000808201600090556001820160009055505060038201600090555050565b600260009054906101000a900473ffffffffffffffffffffffffffffffffffffffff1673ffffffffffffffffffffffffffffffffffffffff163373ffffffffffffffffffffffffffffffffffffffff1614611ac2576040517f08c379a0000000000000000000000000000000000000000000000000000000008152600401611ab9906136b8565b60405180910390fd5b6007600101600001544210158015611ae257506007600101600101544211155b611b21576040517f08c379a0000000000000000000000000000000000000000000000000000000008152600401611b1890613724565b60405180910390fd5b6000611b7084848080601f016020809104026020016040519081016040528093929190818152602001838380828437600081840152601f19601f82011690508083019250505050505050612716565b9050611b7d816002612130565b611b8657600080fd5b60036000828152602001908152602001600020600201600390806001815401808255809150506001900390600052602060002090602091828204019190069091909190916101000a81548160ff0219169083600a811115611bea57611be9613125565b5b021790555060036000828152602001908152602001600020600301829080600181540180825580915050600190039060005260206000200160009091909190915055611c38848483856129f5565b3373ffffffffffffffffffffffffffffffffffffffff167fd584ede0e1da1abff4dac6b0e56f891f2b01d81083c9d9699beacac28f446b14858585604051611c8293929190613aca565b60405180910390a250505050565b600260009054906101000a900473ffffffffffffffffffffffffffffffffffffffff1673ffffffffffffffffffffffffffffffffffffffff163373ffffffffffffffffffffffffffffffffffffffff1614611d20576040517f08c379a0000000000000000000000000000000000000000000000000000000008152600401611d17906136b8565b60405180910390fd5b6007600101600001544210158015611d4057506007600101600101544211155b611d7f576040517f08c379a0000000000000000000000000000000000000000000000000000000008152600401611d7690613724565b60405180910390fd5b6000611dce85858080601f016020809104026020016040519081016040528093929190818152602001838380828437600081840152601f19601f82011690508083019250505050505050612716565b9050611ddb816007612130565b611de457600080fd5b60036000828152602001908152602001600020600201600890806001815401808255809150506001900390600052602060002090602091828204019190069091909190916101000a81548160ff0219169083600a811115611e4857611e47613125565b5b02179055508282600360008481526020019081526020016000206004019190611e72929190612ded565b503373ffffffffffffffffffffffffffffffffffffffff167f287a137e6d755097d78d1cb8fd52fec9af76644de921def1f86c108a4e6b18f286868686604051611ebf9493929190613bd4565b60405180910390a25050505050565b600080600080600760000160009054906101000a900460ff16600760010160000154600760010160010154600760030154935093509350935090919293565b600160009054906101000a900473ffffffffffffffffffffffffffffffffffffffff1673ffffffffffffffffffffffffffffffffffffffff163373ffffffffffffffffffffffffffffffffffffffff1614611f9d576040517f08c379a0000000000000000000000000000000000000000000000000000000008152600401611f94906137e1565b60405180910390fd5b6007600101600001544210158015611fbd57506007600101600101544211155b611ffc576040517f08c379a0000000000000000000000000000000000000000000000000000000008152600401611ff390613724565b60405180910390fd5b600061204b83838080601f016020809104026020016040519081016040528093929190818152602001838380828437600081840152601f19601f82011690508083019250505050505050612716565b9050612058816001611051565b80156120695750612068816117ed565b5b61207257600080fd5b60036000828152602001908152602001600020600201600790806001815401808255809150506001900390600052602060002090602091828204019190069091909190916101000a81548160ff0219169083600a8111156120d6576120d5613125565b5b02179055503373ffffffffffffffffffffffffffffffffffffffff167faae6d576c29601c16cbc3bced4dafc70f0abfef5177650d5853efbec130759dd8484604051612123929190613771565b60405180910390a2505050565b600080600060010260036000868152602001908152602001600020600001541415905060006003600086815260200190815260200160002060020160016003600088815260200190815260200160002060020180549050612191919061398a565b815481106121a2576121a16139be565b5b90600052602060002090602091828204019190069054906101000a900460ff169050600060010285141580156121d55750815b8015612204575083600a8111156121ef576121ee613125565b5b81600a81111561220257612201613125565b5b145b9250505092915050565b600080600102821415801561223d57506000600102600360008481526020019081526020016000206000015414155b801561226c5750600060036000848152602001908152602001600020600401805461226790613830565b905014155b9050919050565b600160009054906101000a900473ffffffffffffffffffffffffffffffffffffffff1673ffffffffffffffffffffffffffffffffffffffff163373ffffffffffffffffffffffffffffffffffffffff1614612303576040517f08c379a00000000000000000000000000000000000000000000000000000000081526004016122fa906137e1565b60405180910390fd5b600760010160000154421015801561232357506007600101600101544211155b612362576040517f08c379a000000000000000000000000000000000000000000000000000000000815260040161235990613724565b60405180910390fd5b60006123b183838080601f016020809104026020016040519081016040528093929190818152602001838380828437600081840152601f19601f82011690508083019250505050505050612716565b90506123bc8161220e565b6123c557600080fd5b60008054906101000a900473ffffffffffffffffffffffffffffffffffffffff1673ffffffffffffffffffffffffffffffffffffffff1663757bec56600360008481526020019081526020016000206004016040518263ffffffff167c010000000000000000000000000000000000000000000000000000000002815260040161244f91906138f7565b600060405180830381600087803b15801561246957600080fd5b505af115801561247d573d6000803e3d6000fd5b50505050600a8081111561249457612493613125565b5b60036000838152602001908152602001600020600201600160036000858152602001908152602001600020600201805490506124d0919061398a565b815481106124e1576124e06139be565b5b90600052602060002090602091828204019190069054906101000a900460ff16600a81111561251357612512613125565b5b146125825760036000828152602001908152602001600020600201600a90806001815401808255809150506001900390600052602060002090602091828204019190069091909190916101000a81548160ff0219169083600a81111561257c5761257b613125565b5b02179055505b505050565b600160009054906101000a900473ffffffffffffffffffffffffffffffffffffffff1673ffffffffffffffffffffffffffffffffffffffff163373ffffffffffffffffffffffffffffffffffffffff1614612617576040517f08c379a000000000000000000000000000000000000000000000000000000000815260040161260e906137e1565b60405180910390fd5b34600760000160009054906101000a900460ff16158015612639575060045481145b612678576040517f08c379a000000000000000000000000000000000000000000000000000000000815260040161266f90613c5b565b60405180910390fd5b6001600760000160006101000a81548160ff02191690831515021790555042600760010160000181905550600654426126b191906139ed565b6007600101600101819055503373ffffffffffffffffffffffffffffffffffffffff167f737c69225d647e5994eab1a6c301bf6d9232beb2759ae1e27a8966b4732bc48960076001016001015460405161270b9190613c7b565b60405180910390a250565b600060028260405160200161272b9190613cd2565b6040516020818303038152906040526040516127479190613d30565b602060405180830381855afa158015612764573d6000803e3d6000fd5b5050506040513d601f19601f82011682018060405250810190612787919061392e565b9050919050565b60008061279c836005612c3a565b15905080156127f757600560008060018111156127bc576127bb613125565b5b60018111156127ce576127cd613125565b5b8152602001908152602001600020546007600301546127ed91906139ed565b6007600301819055505b80915050919050565b6000600454600760030154106128185760045461281f565b6007600301545b9050600160009054906101000a900473ffffffffffffffffffffffffffffffffffffffff1673ffffffffffffffffffffffffffffffffffffffff166108fc829081150290604051600060405180830381858888f19350505050158015612889573d6000803e3d6000fd5b50600160009054906101000a900473ffffffffffffffffffffffffffffffffffffffff1673ffffffffffffffffffffffffffffffffffffffff167f011f4c6b688aeffa862df56fd24d95c974bcf62e68e48229205331dc2a8651d8826040516128f29190613c7b565b60405180910390a250565b60003073ffffffffffffffffffffffffffffffffffffffff16319050600260009054906101000a900473ffffffffffffffffffffffffffffffffffffffff1673ffffffffffffffffffffffffffffffffffffffff166108fc829081150290604051600060405180830381858888f19350505050158015612981573d6000803e3d6000fd5b50600260009054906101000a900473ffffffffffffffffffffffffffffffffffffffff1673ffffffffffffffffffffffffffffffffffffffff167f31a37598b7a127e2695fe80a9408c25b99252b1aa1992aa9b56a2d7a8281bc8a826040516129ea9190613c7b565b60405180910390a250565b600081604051602001612a089190613d47565b6040516020818303038152906040528051906020012090508060036000858152602001908152602001600020600501541415612b2b5760036000848152602001908152602001600020600201600490806001815401808255809150506001900390600052602060002090602091828204019190069091909190916101000a81548160ff0219169083600a811115612aa257612aa1613125565b5b021790555060016003600085815260200190815260200160002060010160006101000a81548160ff0219169083151502179055503373ffffffffffffffffffffffffffffffffffffffff167f37d3d7e9f43db166565b8852c63b815c0166abe17fa10fd98263b09c5cde82648686604051612b1e929190613771565b60405180910390a2612c33565b3373ffffffffffffffffffffffffffffffffffffffff167fabb57bcdd8021d0c141741b15d8c62458a32285e9f96ef0a9dbf98976b5d2c1882604051612b719190613d47565b60405180910390a260036000848152602001908152602001600020600201600590806001815401808255809150506001900390600052602060002090602091828204019190069091909190916101000a81548160ff0219169083600a811115612bdd57612bdc613125565b5b02179055503373ffffffffffffffffffffffffffffffffffffffff167fa361c37b9b9279fb76c5b2f6766e0c6329c08bcca7bd57140b98e24f8f9dc3698686604051612c2a929190613771565b60405180910390a25b5050505050565b60008060008060009050600080600360008981526020019081526020016000206002018054905090505b6000811115612dd45781158015612cf1575086600a811115612c8957612c88613125565b5b600360008a8152602001908152602001600020600201600183612cac919061398a565b81548110612cbd57612cbc6139be565b5b90600052602060002090602091828204019190069054906101000a900460ff16600a811115612cef57612cee613125565b5b145b15612d0e57600181612d03919061398a565b935060019150612dad565b82158015612d9357506004600a811115612d2b57612d2a613125565b5b600360008a8152602001908152602001600020600201600183612d4e919061398a565b81548110612d5f57612d5e6139be565b5b90600052602060002090602091828204019190069054906101000a900460ff16600a811115612d9157612d90613125565b5b145b15612dac57600181612da5919061398a565b9450600192505b5b818015612db75750825b15612dc157612dd4565b8080612dcc90613d62565b915050612c64565b50808015612de157508383115b94505050505092915050565b828054612df990613830565b90600052602060002090601f016020900481019282612e1b5760008555612e62565b82601f10612e3457803560ff1916838001178555612e62565b82800160010185558215612e62579182015b82811115612e61578235825591602001919060010190612e46565b5b509050612e6f9190612e73565b5090565b5b80821115612e8c576000816000905550600101612e74565b5090565b6000604051905090565b600080fd5b600080fd5b600080fd5b600080fd5b600080fd5b60008083601f840112612ec957612ec8612ea4565b5b8235905067ffffffffffffffff811115612ee657612ee5612ea9565b5b602083019150836001820283011115612f0257612f01612eae565b5b9250929050565b60008060208385031215612f2057612f1f612e9a565b5b600083013567ffffffffffffffff811115612f3e57612f3d612e9f565b5b612f4a85828601612eb3565b92509250509250929050565b600080fd5b6000601f19601f8301169050919050565b7f4e487b7100000000000000000000000000000000000000000000000000000000600052604160045260246000fd5b612fa482612f5b565b810181811067ffffffffffffffff82111715612fc357612fc2612f6c565b5b80604052505050565b6000612fd6612e90565b9050612fe28282612f9b565b919050565b600067ffffffffffffffff82111561300257613001612f6c565b5b61300b82612f5b565b9050602081019050919050565b82818337600083830152505050565b600061303a61303584612fe7565b612fcc565b90508281526020810184848401111561305657613055612f56565b5b613061848285613018565b509392505050565b600082601f83011261307e5761307d612ea4565b5b813561308e848260208601613027565b91505092915050565b6000602082840312156130ad576130ac612e9a565b5b600082013567ffffffffffffffff8111156130cb576130ca612e9f565b5b6130d784828501613069565b91505092915050565b6000819050919050565b6130f3816130e0565b82525050565b600081519050919050565b600082825260208201905092915050565b6000819050602082019050919050565b7f4e487b7100000000000000000000000000000000000000000000000000000000600052602160045260246000fd5b600b811061316557613164613125565b5b50565b600081905061317682613154565b919050565b600061318682613168565b9050919050565b6131968161317b565b82525050565b60006131a8838361318d565b60208301905092915050565b6000602082019050919050565b60006131cc826130f9565b6131d68185613104565b93506131e183613115565b8060005b838110156132125781516131f9888261319c565b9750613204836131b4565b9250506001810190506131e5565b5085935050505092915050565b60008115159050919050565b6132348161321f565b82525050565b600081519050919050565b600082825260208201905092915050565b6000819050602082019050919050565b61326f816130e0565b82525050565b60006132818383613266565b60208301905092915050565b6000602082019050919050565b60006132a58261323a565b6132af8185613245565b93506132ba83613256565b8060005b838110156132eb5781516132d28882613275565b97506132dd8361328d565b9250506001810190506132be565b5085935050505092915050565b600081519050919050565b600082825260208201905092915050565b60005b83811015613332578082015181840152602081019050613317565b83811115613341576000848401525b50505050565b6000613352826132f8565b61335c8185613303565b935061336c818560208601613314565b61337581612f5b565b840191505092915050565b600060a08201905061339560008301886130ea565b81810360208301526133a781876131c1565b90506133b6604083018661322b565b81810360608301526133c8818561329a565b905081810360808301526133dc8184613347565b90509695505050505050565b6133f1816130e0565b81146133fc57600080fd5b50565b60008135905061340e816133e8565b92915050565b61341d8161321f565b811461342857600080fd5b50565b60008135905061343a81613414565b92915050565b6000806040838503121561345757613456612e9a565b5b6000613465858286016133ff565b92505060206134768582860161342b565b9150509250929050565b6000602082019050613495600083018461322b565b92915050565b6000806000604084860312156134b4576134b3612e9a565b5b600084013567ffffffffffffffff8111156134d2576134d1612e9f565b5b6134de86828701612eb3565b935093505060206134f1868287016133ff565b9150509250925092565b60006020828403121561351157613510612e9a565b5b600061351f848285016133ff565b91505092915050565b6000806000806040858703121561354257613541612e9a565b5b600085013567ffffffffffffffff8111156135605761355f612e9f565b5b61356c87828801612eb3565b9450945050602085013567ffffffffffffffff81111561358f5761358e612e9f565b5b61359b87828801612eb3565b925092505092959194509250565b6000819050919050565b6135bc816135a9565b82525050565b60006080820190506135d7600083018761322b565b6135e460208301866135b3565b6135f160408301856135b3565b6135fe60608301846135b3565b95945050505050565b600b811061361457600080fd5b50565b60008135905061362681613607565b92915050565b6000806040838503121561364357613642612e9a565b5b6000613651858286016133ff565b925050602061366285828601613617565b9150509250929050565b7f4f6e6c79436c6f75640000000000000000000000000000000000000000000000600082015250565b60006136a2600983613303565b91506136ad8261366c565b602082019050919050565b600060208201905081810360008301526136d181613695565b9050919050565b7f534c4156616c6964697479000000000000000000000000000000000000000000600082015250565b600061370e600b83613303565b9150613719826136d8565b602082019050919050565b6000602082019050818103600083015261373d81613701565b9050919050565b60006137508385613303565b935061375d838584613018565b61376683612f5b565b840190509392505050565b6000602082019050818103600083015261378c818486613744565b90509392505050565b7f4f6e6c7955736572000000000000000000000000000000000000000000000000600082015250565b60006137cb600883613303565b91506137d682613795565b602082019050919050565b600060208201905081810360008301526137fa816137be565b9050919050565b7f4e487b7100000000000000000000000000000000000000000000000000000000600052602260045260246000fd5b6000600282049050600182168061384857607f821691505b6020821081141561385c5761385b613801565b5b50919050565b60008190508160005260206000209050919050565b6000815461388481613830565b61388e8186613303565b945060018216600081146138a957600181146138bb576138ee565b60ff19831686526020860193506138ee565b6138c485613862565b60005b838110156138e6578154818901526001820191506020810190506138c7565b808801955050505b50505092915050565b600060208201905081810360008301526139118184613877565b905092915050565b600081519050613928816133e8565b92915050565b60006020828403121561394457613943612e9a565b5b600061395284828501613919565b91505092915050565b7f4e487b7100000000000000000000000000000000000000000000000000000000600052601160045260246000fd5b6000613995826135a9565b91506139a0836135a9565b9250828210156139b3576139b261395b565b5b828203905092915050565b7f4e487b7100000000000000000000000000000000000000000000000000000000600052603260045260246000fd5b60006139f8826135a9565b9150613a03836135a9565b9250827fffffffffffffffffffffffffffffffffffffffffffffffffffffffffffffffff03821115613a3857613a3761395b565b5b828201905092915050565b60006060820190508181036000830152613a5e818688613744565b90508181036020830152613a728185613347565b9050613a8160408301846135b3565b95945050505050565b60006060820190508181036000830152613aa5818688613744565b9050613ab4602083018561322b565b613ac160408301846135b3565b95945050505050565b60006040820190508181036000830152613ae5818587613744565b9050613af460208301846130ea565b949350505050565b7f4f6e6c79557365724f72436c6f75640000000000000000000000000000000000600082015250565b6000613b32600f83613303565b9150613b3d82613afc565b602082019050919050565b60006020820190508181036000830152613b6181613b25565b9050919050565b7f56616c6964697479506572696f64456e64656400000000000000000000000000600082015250565b6000613b9e601383613303565b9150613ba982613b68565b602082019050919050565b60006020820190508181036000830152613bcd81613b91565b9050919050565b60006040820190508181036000830152613bef818688613744565b90508181036020830152613c04818486613744565b905095945050505050565b7f4163746976617461626c65000000000000000000000000000000000000000000600082015250565b6000613c45600b83613303565b9150613c5082613c0f565b602082019050919050565b60006020820190508181036000830152613c7481613c38565b9050919050565b6000602082019050613c9060008301846135b3565b92915050565b600081905092915050565b6000613cac826132f8565b613cb68185613c96565b9350613cc6818560208601613314565b80840191505092915050565b6000613cde8284613ca1565b915081905092915050565b600081519050919050565b600081905092915050565b6000613d0a82613ce9565b613d148185613cf4565b9350613d24818560208601613314565b80840191505092915050565b6000613d3c8284613cff565b915081905092915050565b6000602082019050613d5c60008301846130ea565b92915050565b6000613d6d826135a9565b91506000821415613d8157613d8061395b565b5b60018203905091905056fe436c6f75642073686f756c6420686176652064656c65746564207468652066696c652062757420697420646964206e6f742ea264697066735822122096f3d544bf1841f3512d2ba39d61f6eaaaea0c0a17ccd1b8a20f18b208e8cd0464736f6c63430008090033",
  "immutableReferences": {},
  "source": "// SPDX-License-Identifier: MIT\r\npragma solidity ^0.8.0;\r\npragma experimental ABIEncoderV2;\r\n\r\nimport \"./FileDigestOracle.sol\";\r\n\r\ncontract CloudSLA {\r\n    address private oracle;\r\n    address private user;\r\n    address private cloud;\r\n\r\n    struct Period {\r\n        uint256 startTime;\r\n        uint256 endTime;\r\n    }\r\n\r\n    enum Violation {\r\n        lostFile,\r\n        undeletedFile\r\n    }\r\n\r\n    struct Sla {\r\n        bool paid;\r\n        Period validityPeriod;\r\n        uint256 credits;\r\n    }\r\n\r\n    enum State {\r\n        defaultValue,\r\n        uploadRequested,\r\n        uploadRequestAck,\r\n        uploadTransferAck,\r\n        uploaded,\r\n        deleteRequested,\r\n        deleted,\r\n        readRequested,\r\n        readRequestAck,\r\n        readDeny,\r\n        checkRequested\r\n    }\r\n\r\n    struct File {\r\n        bytes32 ID; //hash of filepath\r\n        bool onCloud;\r\n        State[] states;\r\n        bytes32[] digests; //hashes of content\r\n        string url; //last url\r\n        bytes32 challenge; //hashes of the hash of the content\r\n    }\r\n\r\n    mapping(bytes32 => File) private files;\r\n    uint256 price;\r\n    mapping(Violation => uint256) violationCredits;\r\n    uint256 validityDuration;\r\n    Sla private currentSLA;\r\n\r\n    function Hash(string memory str) private pure returns (bytes32) {\r\n        return (sha256(abi.encodePacked(str)));\r\n    }\r\n\r\n    modifier OnlyUser() {\r\n        require(msg.sender == user, \"OnlyUser\");\r\n        _;\r\n    }\r\n    modifier OnlyCloud() {\r\n        require(msg.sender == cloud, \"OnlyCloud\");\r\n        _;\r\n    }\r\n    modifier OnlyUserOrCloud() {\r\n        require((msg.sender == user || msg.sender == cloud), \"OnlyUserOrCloud\");\r\n        _;\r\n    }\r\n\r\n    function FileInBC(bytes32 i) public view returns (bool res) {\r\n        return (i != 0x0 && files[i].ID != 0x0);\r\n    }\r\n\r\n    function UrlPublished(bytes32 i) public view returns (bool res) {\r\n        return (i != 0x0 &&\r\n            files[i].ID != 0x0 &&\r\n            bytes(files[i].url).length != 0);\r\n    }\r\n\r\n    function FileOnCloud(bytes32 i, bool onCloud)\r\n        public\r\n        view\r\n        returns (bool res)\r\n    {\r\n        bool inBC = files[i].ID != 0x0;\r\n        if (onCloud) return (i != 0x0 && inBC && files[i].onCloud);\r\n        else return (!inBC || !files[i].onCloud);\r\n    }\r\n\r\n    function NotBeingChecked(bytes32 i) public view returns (bool res) {\r\n        bool inBC = files[i].ID != 0x0;\r\n        return (!inBC ||\r\n            (files[i].states[files[i].states.length - 1] !=\r\n                State.checkRequested));\r\n    }\r\n\r\n    function FileState(bytes32 i, State prevState)\r\n        public\r\n        view\r\n        returns (bool res)\r\n    {\r\n        bool inBC = files[i].ID != 0x0;\r\n        State lastState = files[i].states[files[i].states.length - 1];\r\n        return (i != 0x0 && inBC && lastState == prevState);\r\n    }\r\n\r\n    modifier IsSLAValid() {\r\n        require(\r\n            block.timestamp >= currentSLA.validityPeriod.startTime &&\r\n                block.timestamp <= currentSLA.validityPeriod.endTime,\r\n            \"SLAValidity\"\r\n        );\r\n        _;\r\n    }\r\n\r\n    modifier Activatable(uint256 sentValue) {\r\n        require(!currentSLA.paid && sentValue == price, \"Activatable\");\r\n        _;\r\n    }\r\n\r\n    modifier ValidityPeriodEnded() {\r\n        require(\r\n            block.timestamp >= currentSLA.validityPeriod.endTime,\r\n            \"ValidityPeriodEnded\"\r\n        );\r\n        _;\r\n    }\r\n\r\n    event Paid(address indexed _from, uint256 endTime);\r\n    event CompensatedUser(address indexed _user, uint256 value);\r\n    event PaidCloudProvider(address indexed _cloud, uint256 value);\r\n    event UploadRequested(\r\n        address indexed _from,\r\n        string filepath,\r\n        bytes32 challenge\r\n    );\r\n    event UploadRequestAcked(address indexed _from, string filepath);\r\n    event UploadTransferAcked(\r\n        address indexed _from,\r\n        string filepath,\r\n        bytes32 digest\r\n    );\r\n    event ChallengeCorrect(address indexed _from, string filepath);\r\n    event ChallengeWrong(address indexed _from, bytes32 response);\r\n    event DeleteRequested(address indexed _from, string filepath);\r\n    event Deleted(address indexed _from, string filepath);\r\n    event ReadRequested(address indexed _from, string filepath);\r\n    event ReadRequestAcked(address indexed _from, string filepath, string url);\r\n    event ReadRequestDenied(\r\n        address indexed _from,\r\n        string filepath,\r\n        bool lostFile,\r\n        uint256 credits\r\n    );\r\n    event FileChecked(\r\n        address indexed _from,\r\n        string filepath,\r\n        string msg,\r\n        uint256 credits\r\n    );\r\n\r\n    constructor(\r\n        address _oracle,\r\n        address _cloud,\r\n        address _user,\r\n        uint256 _price,\r\n        uint256 _validityDuration,\r\n        uint256 lostFileCredits,\r\n        uint256 undeletedFileCredits\r\n    ) {\r\n        oracle = _oracle;\r\n        cloud = _cloud;\r\n        user = _user;\r\n        price = _price;\r\n        validityDuration = _validityDuration;\r\n        violationCredits[Violation.lostFile] = lostFileCredits;\r\n        violationCredits[Violation.undeletedFile] = undeletedFileCredits;\r\n    }\r\n\r\n    function Deposit() external payable OnlyUser Activatable(msg.value) {\r\n        currentSLA.paid = true;\r\n        currentSLA.validityPeriod.startTime = block.timestamp;\r\n        currentSLA.validityPeriod.endTime = block.timestamp + validityDuration;\r\n        emit Paid(msg.sender, currentSLA.validityPeriod.endTime);\r\n    }\r\n\r\n    function EndSla() external OnlyUserOrCloud ValidityPeriodEnded {\r\n        CompensateUser();\r\n        PayCloudProvider();\r\n        delete currentSLA;\r\n    }\r\n\r\n    function CompensateUser() internal {\r\n        uint256 value = currentSLA.credits < price ? currentSLA.credits : price;\r\n        payable(user).transfer(value);\r\n        emit CompensatedUser(user, value);\r\n    }\r\n\r\n    function PayCloudProvider() internal {\r\n        uint256 value = address(this).balance;\r\n        payable(cloud).transfer(value);\r\n        emit PaidCloudProvider(cloud, value);\r\n    }\r\n\r\n    function UploadRequest(string calldata filepath, bytes32 challenge)\r\n        external\r\n        OnlyUser\r\n        IsSLAValid\r\n    {\r\n        bytes32 i = Hash(filepath);\r\n        require(FileOnCloud(i, false) && NotBeingChecked(i));\r\n        files[i].ID = i;\r\n        files[i].states.push(State.uploadRequested);\r\n        files[i].challenge = challenge;\r\n        emit UploadRequested(msg.sender, filepath, challenge);\r\n    }\r\n\r\n    function UploadRequestAck(string calldata filepath)\r\n        external\r\n        OnlyCloud\r\n        IsSLAValid\r\n    {\r\n        bytes32 i = Hash(filepath);\r\n        require(FileState(i, State.uploadRequested));\r\n        files[i].states.push(State.uploadRequestAck);\r\n        emit UploadRequestAcked(msg.sender, filepath);\r\n    }\r\n\r\n    function UploadTransferAck(string calldata filepath, bytes32 digest)\r\n        external\r\n        OnlyCloud\r\n        IsSLAValid\r\n    {\r\n        bytes32 i = Hash(filepath);\r\n        require(FileState(i, State.uploadRequestAck));\r\n        files[i].states.push(State.uploadTransferAck);\r\n        files[i].digests.push(digest);\r\n\r\n        UploadConfirm(filepath, i, digest);\r\n\r\n        emit UploadTransferAcked(msg.sender, filepath, digest);\r\n    }\r\n\r\n    function UploadConfirm(\r\n        string calldata filepath,\r\n        bytes32 index,\r\n        bytes32 digest\r\n    ) internal {\r\n        bytes32 cloudResponse = keccak256(abi.encode(digest));\r\n        if (files[index].challenge == cloudResponse) {\r\n            files[index].states.push(State.uploaded);\r\n            files[index].onCloud = true;\r\n            emit ChallengeCorrect(msg.sender, filepath);\r\n        } else {\r\n            emit ChallengeWrong(msg.sender, cloudResponse);\r\n            files[index].states.push(State.deleteRequested);\r\n            emit DeleteRequested(msg.sender, filepath);\r\n        }\r\n    }\r\n\r\n    function DeleteRequest(string calldata filepath)\r\n        external\r\n        OnlyUser\r\n        IsSLAValid\r\n    {\r\n        bytes32 i = Hash(filepath);\r\n        require(FileOnCloud(i, true) && NotBeingChecked(i));\r\n        files[i].states.push(State.deleteRequested);\r\n        emit DeleteRequested(msg.sender, filepath);\r\n    }\r\n\r\n    function Delete(string calldata filepath) external OnlyCloud IsSLAValid {\r\n        bytes32 i = Hash(filepath);\r\n        require(FileState(i, State.deleteRequested));\r\n        files[i].states.push(State.deleted);\r\n        files[i].onCloud = false;\r\n        emit Deleted(msg.sender, filepath);\r\n    }\r\n\r\n    function ReadRequest(string calldata filepath)\r\n        external\r\n        OnlyUser\r\n        IsSLAValid\r\n    {\r\n        bytes32 i = Hash(filepath);\r\n        require(FileOnCloud(i, true) && NotBeingChecked(i));\r\n        files[i].states.push(State.readRequested);\r\n        emit ReadRequested(msg.sender, filepath);\r\n    }\r\n\r\n    function ReadRequestAck(string calldata filepath, string calldata url)\r\n        external\r\n        OnlyCloud\r\n        IsSLAValid\r\n    {\r\n        bytes32 i = Hash(filepath);\r\n        require(FileState(i, State.readRequested));\r\n        files[i].states.push(State.readRequestAck);\r\n        files[i].url = url;\r\n        emit ReadRequestAcked(msg.sender, filepath, url);\r\n    }\r\n\r\n    function ReadRequestDeny(string calldata filepath)\r\n        external\r\n        OnlyCloud\r\n        IsSLAValid\r\n    {\r\n        bytes32 i = Hash(filepath);\r\n        require(FileState(i, State.readRequested));\r\n        files[i].states.push(State.readDeny);\r\n        emit ReadRequestDenied(\r\n            msg.sender,\r\n            filepath,\r\n            LostFileCheck(i),\r\n            currentSLA.credits\r\n        );\r\n    }\r\n\r\n    function LostFileCheck(bytes32 ID) internal returns (bool) {\r\n        bool lostFile = !OperationAfterUpload(ID, State.deleteRequested);\r\n        if (lostFile) {\r\n            currentSLA.credits =\r\n                currentSLA.credits +\r\n                violationCredits[Violation.lostFile];\r\n        }\r\n        return (lostFile);\r\n    }\r\n\r\n    function FileHashRequest(string calldata filepath)\r\n        external\r\n        OnlyUser\r\n        IsSLAValid\r\n    {\r\n        bytes32 i = Hash(filepath);\r\n        require(UrlPublished(i));\r\n        FileDigestOracle(oracle).DigestRequest(files[i].url);\r\n        if (files[i].states[files[i].states.length - 1] != State.checkRequested)\r\n            files[i].states.push(State.checkRequested);\r\n    }\r\n\r\n    function FileCheck(string calldata filepath) external OnlyUser IsSLAValid {\r\n        bytes32 i = Hash(filepath);\r\n        require(FileInBC(i) && FileState(i, State.checkRequested));\r\n        bool intactOnCloud = (files[i].digests[files[i].digests.length - 1] ==\r\n            FileDigestOracle(oracle).DigestRetrieve(files[i].url));\r\n        string memory res = \"No SLA violations.\";\r\n\r\n        if (!files[i].onCloud && intactOnCloud) {\r\n            res = \"Cloud should have deleted the file but it did not.\";\r\n            currentSLA.credits =\r\n                currentSLA.credits +\r\n                violationCredits[Violation.undeletedFile];\r\n        } else if (files[i].onCloud && !intactOnCloud) {\r\n            res = \"File has been corrupted.\";\r\n            currentSLA.credits =\r\n                currentSLA.credits +\r\n                violationCredits[Violation.lostFile];\r\n        }\r\n        //restore previous state\r\n        files[i].states.push(files[i].states[files[i].states.length - 2]);\r\n        emit FileChecked(msg.sender, filepath, res, currentSLA.credits);\r\n    }\r\n\r\n    //check if there is an operation after last upload\r\n    function OperationAfterUpload(bytes32 ID, State operation)\r\n        internal\r\n        view\r\n        returns (bool)\r\n    {\r\n        //get index of last uploaded state and last deleted state if present\r\n        uint256 uploadedTime;\r\n        uint256 operationTime;\r\n        bool uploadedFound = false;\r\n        bool operationFound = false;\r\n        for (uint256 j = files[ID].states.length; j > 0; j--) {\r\n            if (!operationFound && files[ID].states[j - 1] == operation) {\r\n                operationTime = j - 1;\r\n                operationFound = true;\r\n            } else if (\r\n                !uploadedFound && files[ID].states[j - 1] == State.uploaded\r\n            ) {\r\n                uploadedTime = j - 1;\r\n                uploadedFound = true;\r\n            }\r\n            //early exit\r\n            if (operationFound && uploadedFound) break;\r\n        }\r\n        return (operationFound && operationTime > uploadedTime);\r\n    }\r\n\r\n    function GetFile(string memory filepath)\r\n        public\r\n        view\r\n        returns (\r\n            bytes32,\r\n            State[] memory,\r\n            bool,\r\n            bytes32[] memory,\r\n            string memory\r\n        )\r\n    {\r\n        bytes32 i = Hash(filepath);\r\n        require(FileInBC(i));\r\n        return (\r\n            files[i].ID,\r\n            files[i].states,\r\n            files[i].onCloud,\r\n            files[i].digests,\r\n            files[i].url\r\n        );\r\n    }\r\n\r\n    function GetSLAInfo()\r\n        public\r\n        view\r\n        returns (\r\n            bool,\r\n            uint256,\r\n            uint256,\r\n            uint256\r\n        )\r\n    {\r\n        return (\r\n            currentSLA.paid,\r\n            currentSLA.validityPeriod.startTime,\r\n            currentSLA.validityPeriod.endTime,\r\n            currentSLA.credits\r\n        );\r\n    }\r\n}\r\n",
  "sourcePath": "/mnt/c/Users/Prush/Desktop/cloud-chain/contracts/CloudSLA.sol",
  "compiler": {
    "name": "solc",
    "version": "0.8.9+commit.e5eed63a.Emscripten.clang"
  },
  "schemaVersion": "3.4.4",
  "updatedAt": "2022-01-27T15:06:49.556Z",
  "devdoc": {
    "kind": "dev",
    "methods": {},
    "version": 1
  },
  "userdoc": {
    "kind": "user",
    "methods": {},
    "version": 1
  }
}