{
  "contractName": "FileDigestOracle",
  "abi": [
    {
      "inputs": [],
      "stateMutability": "nonpayable",
      "type": "constructor"
    },
    {
      "anonymous": false,
      "inputs": [
        {
          "indexed": true,
          "internalType": "address",
          "name": "_from",
          "type": "address"
        },
        {
          "indexed": false,
          "internalType": "bytes32",
          "name": "requestID",
          "type": "bytes32"
        },
        {
          "indexed": false,
          "internalType": "string",
          "name": "url",
          "type": "string"
        },
        {
          "indexed": false,
          "internalType": "bytes32",
          "name": "digest",
          "type": "bytes32"
        }
      ],
      "name": "DigestComputed",
      "type": "event"
    },
    {
      "anonymous": false,
      "inputs": [
        {
          "indexed": true,
          "internalType": "address",
          "name": "_from",
          "type": "address"
        },
        {
          "indexed": false,
          "internalType": "bytes32",
          "name": "requestID",
          "type": "bytes32"
        },
        {
          "indexed": false,
          "internalType": "string",
          "name": "url",
          "type": "string"
        }
      ],
      "name": "DigestRequested",
      "type": "event"
    },
    {
      "inputs": [
        {
          "internalType": "string",
          "name": "url",
          "type": "string"
        }
      ],
      "name": "DigestRequest",
      "outputs": [],
      "stateMutability": "nonpayable",
      "type": "function"
    },
    {
      "inputs": [
        {
          "internalType": "string",
          "name": "url",
          "type": "string"
        },
        {
          "internalType": "bytes32",
          "name": "digest",
          "type": "bytes32"
        }
      ],
      "name": "DigestStore",
      "outputs": [],
      "stateMutability": "nonpayable",
      "type": "function"
    },
    {
      "inputs": [
        {
          "internalType": "string",
          "name": "url",
          "type": "string"
        }
      ],
      "name": "DigestRetrieve",
      "outputs": [
        {
          "internalType": "bytes32",
          "name": "",
          "type": "bytes32"
        }
      ],
      "stateMutability": "view",
      "type": "function",
      "constant": true
    }
  ],
  "bytecode": "0x608060405234801561001057600080fd5b50336000806101000a81548173ffffffffffffffffffffffffffffffffffffffff021916908373ffffffffffffffffffffffffffffffffffffffff1602179055506109da806100606000396000f3fe608060405234801561001057600080fd5b506004361061005e576000357c0100000000000000000000000000000000000000000000000000000000900480637333feb414610063578063757bec561461007f57806397307a8b1461009b575b600080fd5b61007d600480360381019061007891906105f4565b6100cb565b005b61009960048036038101906100949190610654565b6102e0565b005b6100b560048036038101906100b09190610654565b6103a3565b6040516100c291906106b0565b60405180910390f35b60008054906101000a900473ffffffffffffffffffffffffffffffffffffffff1673ffffffffffffffffffffffffffffffffffffffff163373ffffffffffffffffffffffffffffffffffffffff1614610159576040517f08c379a000000000000000000000000000000000000000000000000000000000815260040161015090610728565b60405180910390fd5b82828080601f016020809104026020016040519081016040528093929190818152602001838380828437600081840152601f19601f8201169050808301925050505050505060006101a9826104d7565b9050600060010281141580156101d957506000600102600160008381526020019081526020016000206000015414155b610218576040517f08c379a000000000000000000000000000000000000000000000000000000000815260040161020f90610794565b60405180910390fd5b600061026786868080601f016020809104026020016040519081016040528093929190818152602001838380828437600081840152601f19601f820116905080830192505050505050506104d7565b90508360016000838152602001908152602001600020600101819055503373ffffffffffffffffffffffffffffffffffffffff167fc286357e9d39baf9c7393bc3c840f895039c68e3715aef18bf71653b7255b407828888886040516102d09493929190610801565b60405180910390a2505050505050565b600061032f83838080601f016020809104026020016040519081016040528093929190818152602001838380828437600081840152601f19601f820116905080830192505050505050506104d7565b90508060016000838152602001908152602001600020600001819055503373ffffffffffffffffffffffffffffffffffffffff167f31ae7b83561979090d5fed21dbf481850a2043db1f5d8d16c199c2a0722ca33782858560405161039693929190610841565b60405180910390a2505050565b600082828080601f016020809104026020016040519081016040528093929190818152602001838380828437600081840152601f19601f8201169050808301925050505050505060006103f5826104d7565b90506000600102811415801561042557506000600102600160008381526020019081526020016000206000015414155b610464576040517f08c379a000000000000000000000000000000000000000000000000000000000815260040161045b90610794565b60405180910390fd5b60006104b386868080601f016020809104026020016040519081016040528093929190818152602001838380828437600081840152601f19601f820116905080830192505050505050506104d7565b90506001600082815260200190815260200160002060010154935050505092915050565b60006002826040516020016104ec91906108ed565b604051602081830303815290604052604051610508919061094b565b602060405180830381855afa158015610525573d6000803e3d6000fd5b5050506040513d601f19601f820116820180604052508101906105489190610977565b9050919050565b600080fd5b600080fd5b600080fd5b600080fd5b600080fd5b60008083601f84011261057e5761057d610559565b5b8235905067ffffffffffffffff81111561059b5761059a61055e565b5b6020830191508360018202830111156105b7576105b6610563565b5b9250929050565b6000819050919050565b6105d1816105be565b81146105dc57600080fd5b50565b6000813590506105ee816105c8565b92915050565b60008060006040848603121561060d5761060c61054f565b5b600084013567ffffffffffffffff81111561062b5761062a610554565b5b61063786828701610568565b9350935050602061064a868287016105df565b9150509250925092565b6000806020838503121561066b5761066a61054f565b5b600083013567ffffffffffffffff81111561068957610688610554565b5b61069585828601610568565b92509250509250929050565b6106aa816105be565b82525050565b60006020820190506106c560008301846106a1565b92915050565b600082825260208201905092915050565b7f4f6e6c794f7261636c6500000000000000000000000000000000000000000000600082015250565b6000610712600a836106cb565b915061071d826106dc565b602082019050919050565b6000602082019050818103600083015261074181610705565b9050919050565b7f5265717565737445786973747300000000000000000000000000000000000000600082015250565b600061077e600d836106cb565b915061078982610748565b602082019050919050565b600060208201905081810360008301526107ad81610771565b9050919050565b82818337600083830152505050565b6000601f19601f8301169050919050565b60006107e083856106cb565b93506107ed8385846107b4565b6107f6836107c3565b840190509392505050565b600060608201905061081660008301876106a1565b81810360208301526108298185876107d4565b905061083860408301846106a1565b95945050505050565b600060408201905061085660008301866106a1565b81810360208301526108698184866107d4565b9050949350505050565b600081519050919050565b600081905092915050565b60005b838110156108a757808201518184015260208101905061088c565b838111156108b6576000848401525b50505050565b60006108c782610873565b6108d1818561087e565b93506108e1818560208601610889565b80840191505092915050565b60006108f982846108bc565b915081905092915050565b600081519050919050565b600081905092915050565b600061092582610904565b61092f818561090f565b935061093f818560208601610889565b80840191505092915050565b6000610957828461091a565b915081905092915050565b600081519050610971816105c8565b92915050565b60006020828403121561098d5761098c61054f565b5b600061099b84828501610962565b9150509291505056fea2646970667358221220faeeff158d7e35fd760326e35b23703aababc00097feb8f7414429abc5158f9e64736f6c63430008090033",
  "immutableReferences": {},
  "source": "// SPDX-License-Identifier: MIT\r\npragma solidity ^0.8.0;\r\npragma experimental ABIEncoderV2;\r\n\r\n/**\r\n * @title FileDigestOracle\r\n * @dev \r\n */\r\ncontract FileDigestOracle {\r\n\r\n    address private oracle;\r\n    \r\n    struct Request {\r\n        bytes32 ID;\r\n        bytes32 digest;\r\n    }\r\n    \r\n    mapping ( bytes32 => Request ) private requests;\r\n    \r\n    modifier OnlyOracle {require (msg.sender == oracle, \"OnlyOracle\"); _;}\r\n    \r\n    modifier RequestExists(string memory url) { \r\n        bytes32 i = Hash(url);\r\n        require(i != 0x0 && requests[i].ID != 0x0, \"RequestExists\");\r\n        _;\r\n    }\r\n\r\n    constructor() {\r\n        oracle = msg.sender;\r\n    }\r\n \r\n    function Hash(string memory str) private pure returns(bytes32){\r\n        return (sha256(abi.encodePacked(str)));\r\n    }\r\n    \r\n    event DigestRequested(address indexed _from, bytes32 requestID, string url);\r\n    event DigestComputed(address indexed _from,  bytes32 requestID, string url, bytes32 digest);\r\n    \r\n    function DigestRequest(string calldata url) external{\r\n        bytes32 i = Hash(url);\r\n        requests[i].ID = i;\r\n        emit DigestRequested(msg.sender, i, url);\r\n    }\r\n    \r\n    function DigestStore(string calldata url, bytes32 digest) external OnlyOracle RequestExists(url){\r\n        bytes32 i = Hash(url);\r\n        requests[i].digest = digest;\r\n        emit DigestComputed(msg.sender, i, url, digest);\r\n    }\r\n\r\n    function DigestRetrieve(string calldata url) external view RequestExists(url) returns(bytes32){\r\n        bytes32 i = Hash(url);\r\n        return requests[i].digest;\r\n    }  \r\n}",
  "sourcePath": "/mnt/c/Users/Prush/Desktop/cloud-chain/contracts/FileDigestOracle.sol",
  "compiler": {
    "name": "solc",
    "version": "0.8.9+commit.e5eed63a.Emscripten.clang"
  },
  "schemaVersion": "3.4.4",
  "updatedAt": "2022-02-02T15:17:35.280Z",
  "networkType": "quorum",
  "devdoc": {
    "kind": "dev",
    "methods": {},
    "title": "FileDigestOracle",
    "version": 1
  },
  "userdoc": {
    "kind": "user",
    "methods": {},
    "version": 1
  }
}